{
  "_format": "hh-sol-artifact-1",
  "contractName": "FireNFTMarketPlace",
  "sourceName": "contracts/FireNFTMarketPlace.sol",
  "abi": [
    {
      "inputs": [
        {
          "internalType": "address",
          "name": "erc20token",
          "type": "address"
        }
      ],
      "stateMutability": "nonpayable",
      "type": "constructor"
    },
    {
      "inputs": [
        {
          "internalType": "address",
          "name": "owner",
          "type": "address"
        }
      ],
      "name": "OwnableInvalidOwner",
      "type": "error"
    },
    {
      "inputs": [
        {
          "internalType": "address",
          "name": "account",
          "type": "address"
        }
      ],
      "name": "OwnableUnauthorizedAccount",
      "type": "error"
    },
    {
      "inputs": [],
      "name": "ReentrancyGuardReentrantCall",
      "type": "error"
    },
    {
      "inputs": [
        {
          "internalType": "address",
          "name": "token",
          "type": "address"
        }
      ],
      "name": "SafeERC20FailedOperation",
      "type": "error"
    },
    {
      "anonymous": false,
      "inputs": [
        {
          "indexed": true,
          "internalType": "address",
          "name": "previousOwner",
          "type": "address"
        },
        {
          "indexed": true,
          "internalType": "address",
          "name": "newOwner",
          "type": "address"
        }
      ],
      "name": "OwnershipTransferred",
      "type": "event"
    },
    {
      "inputs": [
        {
          "internalType": "address",
          "name": "nftCtrAddr",
          "type": "address"
        },
        {
          "internalType": "uint256",
          "name": "tokenId",
          "type": "uint256"
        }
      ],
      "name": "buyWithERC20",
      "outputs": [
        {
          "internalType": "bool",
          "name": "",
          "type": "bool"
        }
      ],
      "stateMutability": "nonpayable",
      "type": "function"
    },
    {
      "inputs": [
        {
          "internalType": "address",
          "name": "nftContractAddr",
          "type": "address"
        },
        {
          "internalType": "uint256",
          "name": "tokenId",
          "type": "uint256"
        }
      ],
      "name": "buyWithNative",
      "outputs": [
        {
          "internalType": "bool",
          "name": "",
          "type": "bool"
        }
      ],
      "stateMutability": "payable",
      "type": "function"
    },
    {
      "inputs": [],
      "name": "commissionPercent",
      "outputs": [
        {
          "internalType": "uint256",
          "name": "",
          "type": "uint256"
        }
      ],
      "stateMutability": "view",
      "type": "function"
    },
    {
      "inputs": [],
      "name": "itemSold",
      "outputs": [
        {
          "internalType": "uint256",
          "name": "",
          "type": "uint256"
        }
      ],
      "stateMutability": "view",
      "type": "function"
    },
    {
      "inputs": [
        {
          "internalType": "address",
          "name": "nftCtrAddr",
          "type": "address"
        },
        {
          "internalType": "uint256",
          "name": "tokenId",
          "type": "uint256"
        },
        {
          "internalType": "uint256",
          "name": "sp",
          "type": "uint256"
        }
      ],
      "name": "listNFTWithERC20",
      "outputs": [
        {
          "internalType": "bool",
          "name": "",
          "type": "bool"
        }
      ],
      "stateMutability": "nonpayable",
      "type": "function"
    },
    {
      "inputs": [
        {
          "internalType": "address",
          "name": "nftContract",
          "type": "address"
        },
        {
          "internalType": "uint256",
          "name": "tokenId",
          "type": "uint256"
        },
        {
          "internalType": "uint256",
          "name": "sellingPrice",
          "type": "uint256"
        }
      ],
      "name": "listNFTWithNative",
      "outputs": [
        {
          "internalType": "bool",
          "name": "",
          "type": "bool"
        }
      ],
      "stateMutability": "payable",
      "type": "function"
    },
    {
      "inputs": [],
      "name": "listingPrice",
      "outputs": [
        {
          "internalType": "uint256",
          "name": "",
          "type": "uint256"
        }
      ],
      "stateMutability": "view",
      "type": "function"
    },
    {
      "inputs": [
        {
          "internalType": "address",
          "name": "nftContract",
          "type": "address"
        },
        {
          "internalType": "string",
          "name": "nftURI",
          "type": "string"
        }
      ],
      "name": "mintNFT",
      "outputs": [
        {
          "internalType": "uint256",
          "name": "",
          "type": "uint256"
        }
      ],
      "stateMutability": "nonpayable",
      "type": "function"
    },
    {
      "inputs": [
        {
          "internalType": "address",
          "name": "",
          "type": "address"
        },
        {
          "internalType": "address",
          "name": "",
          "type": "address"
        },
        {
          "internalType": "uint256",
          "name": "",
          "type": "uint256"
        }
      ],
      "name": "nftListing",
      "outputs": [
        {
          "internalType": "uint256",
          "name": "price",
          "type": "uint256"
        },
        {
          "internalType": "string",
          "name": "nftURI",
          "type": "string"
        },
        {
          "internalType": "bool",
          "name": "isListed",
          "type": "bool"
        }
      ],
      "stateMutability": "view",
      "type": "function"
    },
    {
      "inputs": [],
      "name": "owner",
      "outputs": [
        {
          "internalType": "address",
          "name": "",
          "type": "address"
        }
      ],
      "stateMutability": "view",
      "type": "function"
    },
    {
      "inputs": [],
      "name": "renounceOwnership",
      "outputs": [],
      "stateMutability": "nonpayable",
      "type": "function"
    },
    {
      "inputs": [],
      "name": "royaltyPercent",
      "outputs": [
        {
          "internalType": "uint256",
          "name": "",
          "type": "uint256"
        }
      ],
      "stateMutability": "view",
      "type": "function"
    },
    {
      "inputs": [
        {
          "internalType": "address",
          "name": "newOwner",
          "type": "address"
        }
      ],
      "name": "transferOwnership",
      "outputs": [],
      "stateMutability": "nonpayable",
      "type": "function"
    },
    {
      "inputs": [
        {
          "internalType": "address",
          "name": "nftContract",
          "type": "address"
        },
        {
          "internalType": "uint256",
          "name": "tokenId",
          "type": "uint256"
        }
      ],
      "name": "unlist",
      "outputs": [],
      "stateMutability": "nonpayable",
      "type": "function"
    },
    {
      "inputs": [
        {
          "internalType": "uint256",
          "name": "newCommissionPercent",
          "type": "uint256"
        }
      ],
      "name": "updateCommissionPercent",
      "outputs": [],
      "stateMutability": "nonpayable",
      "type": "function"
    },
    {
      "inputs": [
        {
          "internalType": "uint256",
          "name": "newPrice",
          "type": "uint256"
        }
      ],
      "name": "updateListingPrice",
      "outputs": [],
      "stateMutability": "nonpayable",
      "type": "function"
    },
    {
      "inputs": [
        {
          "internalType": "uint256",
          "name": "newRoyaltyPercent",
          "type": "uint256"
        }
      ],
      "name": "updateRoyaltyPercent",
      "outputs": [],
      "stateMutability": "nonpayable",
      "type": "function"
    },
    {
      "inputs": [
        {
          "internalType": "address",
          "name": "addr",
          "type": "address"
        }
      ],
      "name": "withdrawERCFunds",
      "outputs": [
        {
          "internalType": "bool",
          "name": "",
          "type": "bool"
        }
      ],
      "stateMutability": "nonpayable",
      "type": "function"
    }
  ],
  "bytecode": "0x60806040526608e1bc9bf0400060035534801561001b57600080fd5b50604051613aac380380613aac833981810160405281019061003d9190610235565b33600073ffffffffffffffffffffffffffffffffffffffff168173ffffffffffffffffffffffffffffffffffffffff16036100b05760006040517f1e4fbdf70000000000000000000000000000000000000000000000000000000081526004016100a79190610271565b60405180910390fd5b6100bf8161010e60201b60201c565b506001808190555080600260006101000a81548173ffffffffffffffffffffffffffffffffffffffff021916908373ffffffffffffffffffffffffffffffffffffffff1602179055505061028c565b60008060009054906101000a900473ffffffffffffffffffffffffffffffffffffffff169050816000806101000a81548173ffffffffffffffffffffffffffffffffffffffff021916908373ffffffffffffffffffffffffffffffffffffffff1602179055508173ffffffffffffffffffffffffffffffffffffffff168173ffffffffffffffffffffffffffffffffffffffff167f8be0079c531659141344cd1fd0a4f28419497f9722a3daafe3b4186f6b6457e060405160405180910390a35050565b600080fd5b600073ffffffffffffffffffffffffffffffffffffffff82169050919050565b6000610202826101d7565b9050919050565b610212816101f7565b811461021d57600080fd5b50565b60008151905061022f81610209565b92915050565b60006020828403121561024b5761024a6101d2565b5b600061025984828501610220565b91505092915050565b61026b816101f7565b82525050565b60006020820190506102866000830184610262565b92915050565b6138118061029b6000396000f3fe6080604052600436106101095760003560e01c80638da5cb5b11610095578063c28ace4e11610064578063c28ace4e14610351578063c78f19f91461038e578063eacabe14146103b9578063f18a4995146103f6578063f2fde38b1461043357610109565b80638da5cb5b146102a25780639f67756d146102cd578063a344ee3a146102f8578063ae677aa31461032857610109565b806360ed87fd116100dc57806360ed87fd146101bb5780636818609d146101e4578063715018a61461022357806377d3550b1461023a5780637d5b6c991461026557610109565b80631a556edf1461010e578063438e897a1461013e57806349c83e86146101695780635e37979714610192575b600080fd5b6101286004803603810190610123919061280b565b61045c565b6040516101359190612866565b60405180910390f35b34801561014a57600080fd5b50610153610c3c565b6040516101609190612890565b60405180910390f35b34801561017557600080fd5b50610190600480360381019061018b919061280b565b610c42565b005b34801561019e57600080fd5b506101b960048036038101906101b491906128ab565b610eba565b005b3480156101c757600080fd5b506101e260048036038101906101dd91906128ab565b610ecc565b005b3480156101f057600080fd5b5061020b600480360381019061020691906128d8565b610ede565b60405161021a939291906129bb565b60405180910390f35b34801561022f57600080fd5b50610238610fb7565b005b34801561024657600080fd5b5061024f610fcb565b60405161025c9190612890565b60405180910390f35b34801561027157600080fd5b5061028c600480360381019061028791906129f9565b610fd1565b6040516102999190612866565b60405180910390f35b3480156102ae57600080fd5b506102b76111aa565b6040516102c49190612a35565b60405180910390f35b3480156102d957600080fd5b506102e26111d3565b6040516102ef9190612890565b60405180910390f35b610312600480360381019061030d9190612a50565b6111d9565b60405161031f9190612866565b60405180910390f35b34801561033457600080fd5b5061034f600480360381019061034a91906128ab565b6115a5565b005b34801561035d57600080fd5b506103786004803603810190610373919061280b565b6115b7565b6040516103859190612866565b60405180910390f35b34801561039a57600080fd5b506103a3611d2b565b6040516103b09190612890565b60405180910390f35b3480156103c557600080fd5b506103e060048036038101906103db9190612bd8565b611d31565b6040516103ed9190612890565b60405180910390f35b34801561040257600080fd5b5061041d60048036038101906104189190612a50565b611ec4565b60405161042a9190612866565b60405180910390f35b34801561043f57600080fd5b5061045a600480360381019061045591906129f9565b61233b565b005b60008083905060008173ffffffffffffffffffffffffffffffffffffffff16636352211e856040518263ffffffff1660e01b815260040161049d9190612890565b602060405180830381865afa1580156104ba573d6000803e3d6000fd5b505050506040513d601f19601f820116820180604052508101906104de9190612c49565b90506000600760008373ffffffffffffffffffffffffffffffffffffffff1673ffffffffffffffffffffffffffffffffffffffff16815260200190815260200160002060008773ffffffffffffffffffffffffffffffffffffffff1673ffffffffffffffffffffffffffffffffffffffff16815260200190815260200160002060008681526020019081526020016000206000015490506000600760008473ffffffffffffffffffffffffffffffffffffffff1673ffffffffffffffffffffffffffffffffffffffff16815260200190815260200160002060008873ffffffffffffffffffffffffffffffffffffffff1673ffffffffffffffffffffffffffffffffffffffff168152602001908152602001600020600087815260200190815260200160002060020160009054906101000a900460ff169050600115158115151461065e576040517f08c379a000000000000000000000000000000000000000000000000000000000815260040161065590612cc2565b60405180910390fd5b813410156106a1576040517f08c379a000000000000000000000000000000000000000000000000000000000815260040161069890612d54565b60405180910390fd5b3073ffffffffffffffffffffffffffffffffffffffff168473ffffffffffffffffffffffffffffffffffffffff1663081812fc886040518263ffffffff1660e01b81526004016106f19190612890565b602060405180830381865afa15801561070e573d6000803e3d6000fd5b505050506040513d601f19601f820116820180604052508101906107329190612c49565b73ffffffffffffffffffffffffffffffffffffffff1614610788576040517f08c379a000000000000000000000000000000000000000000000000000000000815260040161077f90612dc0565b60405180910390fd5b600060646004543461079a9190612e0f565b6107a49190612e80565b9050600081346107b49190612eb1565b9050600760008673ffffffffffffffffffffffffffffffffffffffff1673ffffffffffffffffffffffffffffffffffffffff16815260200190815260200160002060008a73ffffffffffffffffffffffffffffffffffffffff1673ffffffffffffffffffffffffffffffffffffffff1681526020019081526020016000206000898152602001908152602001600020600760003373ffffffffffffffffffffffffffffffffffffffff1673ffffffffffffffffffffffffffffffffffffffff16815260200190815260200160002060008b73ffffffffffffffffffffffffffffffffffffffff1673ffffffffffffffffffffffffffffffffffffffff16815260200190815260200160002060008a815260200190815260200160002060008201548160000155600182018160010190816108ee9190613107565b506002820160009054906101000a900460ff168160020160006101000a81548160ff021916908315150217905550905050600760008673ffffffffffffffffffffffffffffffffffffffff1673ffffffffffffffffffffffffffffffffffffffff16815260200190815260200160002060008a73ffffffffffffffffffffffffffffffffffffffff1673ffffffffffffffffffffffffffffffffffffffff16815260200190815260200160002060008981526020019081526020016000206000808201600090556001820160006109c59190612706565b6002820160006101000a81549060ff021916905550506000600760003373ffffffffffffffffffffffffffffffffffffffff1673ffffffffffffffffffffffffffffffffffffffff16815260200190815260200160002060008b73ffffffffffffffffffffffffffffffffffffffff1673ffffffffffffffffffffffffffffffffffffffff16815260200190815260200160002060008a815260200190815260200160002060020160006101000a81548160ff0219169083151502179055508573ffffffffffffffffffffffffffffffffffffffff16636352211e896040518263ffffffff1660e01b8152600401610abd9190612890565b602060405180830381865afa158015610ada573d6000803e3d6000fd5b505050506040513d601f19601f82011682018060405250810190610afe9190612c49565b73ffffffffffffffffffffffffffffffffffffffff166108fc829081150290604051600060405180830381858888f19350505050158015610b43573d6000803e3d6000fd5b508573ffffffffffffffffffffffffffffffffffffffff166342842e0e8773ffffffffffffffffffffffffffffffffffffffff16636352211e8b6040518263ffffffff1660e01b8152600401610b999190612890565b602060405180830381865afa158015610bb6573d6000803e3d6000fd5b505050506040513d601f19601f82011682018060405250810190610bda9190612c49565b338b6040518463ffffffff1660e01b8152600401610bfa939291906131ef565b600060405180830381600087803b158015610c1457600080fd5b505af1158015610c28573d6000803e3d6000fd5b505050506001965050505050505092915050565b60065481565b3373ffffffffffffffffffffffffffffffffffffffff168273ffffffffffffffffffffffffffffffffffffffff16636352211e836040518263ffffffff1660e01b8152600401610c929190612890565b602060405180830381865afa158015610caf573d6000803e3d6000fd5b505050506040513d601f19601f82011682018060405250810190610cd39190612c49565b73ffffffffffffffffffffffffffffffffffffffff1614610d29576040517f08c379a0000000000000000000000000000000000000000000000000000000008152600401610d2090613298565b60405180910390fd5b60011515600760003373ffffffffffffffffffffffffffffffffffffffff1673ffffffffffffffffffffffffffffffffffffffff16815260200190815260200160002060008473ffffffffffffffffffffffffffffffffffffffff1673ffffffffffffffffffffffffffffffffffffffff168152602001908152602001600020600083815260200190815260200160002060020160009054906101000a900460ff16151514610e0d576040517f08c379a0000000000000000000000000000000000000000000000000000000008152600401610e0490612cc2565b60405180910390fd5b6000600760003373ffffffffffffffffffffffffffffffffffffffff1673ffffffffffffffffffffffffffffffffffffffff16815260200190815260200160002060008473ffffffffffffffffffffffffffffffffffffffff1673ffffffffffffffffffffffffffffffffffffffff168152602001908152602001600020600083815260200190815260200160002060020160006101000a81548160ff0219169083151502179055505050565b610ec26123c1565b8060048190555050565b610ed46123c1565b8060058190555050565b60076020528260005260406000206020528160005260406000206020528060005260406000206000925092505050806000015490806001018054610f2190612f14565b80601f0160208091040260200160405190810160405280929190818152602001828054610f4d90612f14565b8015610f9a5780601f10610f6f57610100808354040283529160200191610f9a565b820191906000526020600020905b815481529060010190602001808311610f7d57829003601f168201915b5050505050908060020160009054906101000a900460ff16905083565b610fbf6123c1565b610fc96000612448565b565b60045481565b6000610fdb6123c1565b6000600260009054906101000a900473ffffffffffffffffffffffffffffffffffffffff1673ffffffffffffffffffffffffffffffffffffffff166370a08231306040518263ffffffff1660e01b81526004016110389190612a35565b602060405180830381865afa158015611055573d6000803e3d6000fd5b505050506040513d601f19601f8201168201806040525081019061107991906132cd565b116110b9576040517f08c379a00000000000000000000000000000000000000000000000000000000081526004016110b090613346565b60405180910390fd5b6111a182600260009054906101000a900473ffffffffffffffffffffffffffffffffffffffff1673ffffffffffffffffffffffffffffffffffffffff166370a08231306040518263ffffffff1660e01b81526004016111189190612a35565b602060405180830381865afa158015611135573d6000803e3d6000fd5b505050506040513d601f19601f8201168201806040525081019061115991906132cd565b600260009054906101000a900473ffffffffffffffffffffffffffffffffffffffff1673ffffffffffffffffffffffffffffffffffffffff1661250c9092919063ffffffff16565b60019050919050565b60008060009054906101000a900473ffffffffffffffffffffffffffffffffffffffff16905090565b60055481565b6000600354341015611220576040517f08c379a0000000000000000000000000000000000000000000000000000000008152600401611217906133b2565b60405180910390fd5b60001515600760003373ffffffffffffffffffffffffffffffffffffffff1673ffffffffffffffffffffffffffffffffffffffff16815260200190815260200160002060008673ffffffffffffffffffffffffffffffffffffffff1673ffffffffffffffffffffffffffffffffffffffff168152602001908152602001600020600085815260200190815260200160002060020160009054906101000a900460ff16151514611304576040517f08c379a00000000000000000000000000000000000000000000000000000000081526004016112fb9061341e565b60405180910390fd5b3373ffffffffffffffffffffffffffffffffffffffff168473ffffffffffffffffffffffffffffffffffffffff16636352211e856040518263ffffffff1660e01b81526004016113549190612890565b602060405180830381865afa158015611371573d6000803e3d6000fd5b505050506040513d601f19601f820116820180604052508101906113959190612c49565b73ffffffffffffffffffffffffffffffffffffffff16146113eb576040517f08c379a00000000000000000000000000000000000000000000000000000000081526004016113e290613298565b60405180910390fd5b6000821161142e576040517f08c379a0000000000000000000000000000000000000000000000000000000008152600401611425906134b0565b60405180910390fd5b60405180606001604052808381526020018573ffffffffffffffffffffffffffffffffffffffff1663c87b56dd866040518263ffffffff1660e01b81526004016114789190612890565b600060405180830381865afa158015611495573d6000803e3d6000fd5b505050506040513d6000823e3d601f19601f820116820180604052508101906114be9190613540565b815260200160011515815250600760003373ffffffffffffffffffffffffffffffffffffffff1673ffffffffffffffffffffffffffffffffffffffff16815260200190815260200160002060008673ffffffffffffffffffffffffffffffffffffffff1673ffffffffffffffffffffffffffffffffffffffff16815260200190815260200160002060008581526020019081526020016000206000820151816000015560208201518160010190816115769190613589565b5060408201518160020160006101000a81548160ff021916908315150217905550905050600190509392505050565b6115ad6123c1565b8060038190555050565b60008083905060008173ffffffffffffffffffffffffffffffffffffffff16636352211e856040518263ffffffff1660e01b81526004016115f89190612890565b602060405180830381865afa158015611615573d6000803e3d6000fd5b505050506040513d601f19601f820116820180604052508101906116399190612c49565b90506000600760008373ffffffffffffffffffffffffffffffffffffffff1673ffffffffffffffffffffffffffffffffffffffff16815260200190815260200160002060008773ffffffffffffffffffffffffffffffffffffffff1673ffffffffffffffffffffffffffffffffffffffff16815260200190815260200160002060008681526020019081526020016000206000015490506000600760008473ffffffffffffffffffffffffffffffffffffffff1673ffffffffffffffffffffffffffffffffffffffff16815260200190815260200160002060008873ffffffffffffffffffffffffffffffffffffffff1673ffffffffffffffffffffffffffffffffffffffff168152602001908152602001600020600087815260200190815260200160002060020160009054906101000a900460ff16905060011515811515146117b9576040517f08c379a00000000000000000000000000000000000000000000000000000000081526004016117b090612cc2565b60405180910390fd5b81600260009054906101000a900473ffffffffffffffffffffffffffffffffffffffff1673ffffffffffffffffffffffffffffffffffffffff1663dd62ed3e33306040518363ffffffff1660e01b815260040161181792919061365b565b602060405180830381865afa158015611834573d6000803e3d6000fd5b505050506040513d601f19601f8201168201806040525081019061185891906132cd565b1015611899576040517f08c379a0000000000000000000000000000000000000000000000000000000008152600401611890906136f6565b60405180910390fd5b60006064600454846118ab9190612e0f565b6118b59190612e80565b9050600081846118c59190612eb1565b9050611916333084600260009054906101000a900473ffffffffffffffffffffffffffffffffffffffff1673ffffffffffffffffffffffffffffffffffffffff1661258b909392919063ffffffff16565b611965338683600260009054906101000a900473ffffffffffffffffffffffffffffffffffffffff1673ffffffffffffffffffffffffffffffffffffffff1661258b909392919063ffffffff16565b600760008673ffffffffffffffffffffffffffffffffffffffff1673ffffffffffffffffffffffffffffffffffffffff16815260200190815260200160002060008a73ffffffffffffffffffffffffffffffffffffffff1673ffffffffffffffffffffffffffffffffffffffff1681526020019081526020016000206000898152602001908152602001600020600760003373ffffffffffffffffffffffffffffffffffffffff1673ffffffffffffffffffffffffffffffffffffffff16815260200190815260200160002060008b73ffffffffffffffffffffffffffffffffffffffff1673ffffffffffffffffffffffffffffffffffffffff16815260200190815260200160002060008a81526020019081526020016000206000820154816000015560018201816001019081611a9d9190613107565b506002820160009054906101000a900460ff168160020160006101000a81548160ff021916908315150217905550905050600760008673ffffffffffffffffffffffffffffffffffffffff1673ffffffffffffffffffffffffffffffffffffffff16815260200190815260200160002060008a73ffffffffffffffffffffffffffffffffffffffff1673ffffffffffffffffffffffffffffffffffffffff1681526020019081526020016000206000898152602001908152602001600020600080820160009055600182016000611b749190612706565b6002820160006101000a81549060ff021916905550506000600760003373ffffffffffffffffffffffffffffffffffffffff1673ffffffffffffffffffffffffffffffffffffffff16815260200190815260200160002060008b73ffffffffffffffffffffffffffffffffffffffff1673ffffffffffffffffffffffffffffffffffffffff16815260200190815260200160002060008a815260200190815260200160002060020160006101000a81548160ff0219169083151502179055508573ffffffffffffffffffffffffffffffffffffffff166342842e0e8773ffffffffffffffffffffffffffffffffffffffff16636352211e8b6040518263ffffffff1660e01b8152600401611c889190612890565b602060405180830381865afa158015611ca5573d6000803e3d6000fd5b505050506040513d601f19601f82011682018060405250810190611cc99190612c49565b338b6040518463ffffffff1660e01b8152600401611ce9939291906131ef565b600060405180830381600087803b158015611d0357600080fd5b505af1158015611d17573d6000803e3d6000fd5b505050506001965050505050505092915050565b60035481565b6000611d3b61260d565b600083905060008173ffffffffffffffffffffffffffffffffffffffff1663a561403333866040518363ffffffff1660e01b8152600401611d7d929190613716565b6020604051808303816000875af1158015611d9c573d6000803e3d6000fd5b505050506040513d601f19601f82011682018060405250810190611dc091906132cd565b905060405180606001604052806000815260200185815260200160001515815250600760003373ffffffffffffffffffffffffffffffffffffffff1673ffffffffffffffffffffffffffffffffffffffff16815260200190815260200160002060008773ffffffffffffffffffffffffffffffffffffffff1673ffffffffffffffffffffffffffffffffffffffff1681526020019081526020016000206000838152602001908152602001600020600082015181600001556020820151816001019081611e8d9190613589565b5060408201518160020160006101000a81548160ff0219169083151502179055509050508092505050611ebe612653565b92915050565b6000600354600260009054906101000a900473ffffffffffffffffffffffffffffffffffffffff1673ffffffffffffffffffffffffffffffffffffffff1663dd62ed3e33306040518363ffffffff1660e01b8152600401611f2692919061365b565b602060405180830381865afa158015611f43573d6000803e3d6000fd5b505050506040513d601f19601f82011682018060405250810190611f6791906132cd565b1015611fa8576040517f08c379a0000000000000000000000000000000000000000000000000000000008152600401611f9f90613792565b60405180910390fd5b60001515600760003373ffffffffffffffffffffffffffffffffffffffff1673ffffffffffffffffffffffffffffffffffffffff16815260200190815260200160002060008673ffffffffffffffffffffffffffffffffffffffff1673ffffffffffffffffffffffffffffffffffffffff168152602001908152602001600020600085815260200190815260200160002060020160009054906101000a900460ff1615151461208c576040517f08c379a00000000000000000000000000000000000000000000000000000000081526004016120839061341e565b60405180910390fd5b3373ffffffffffffffffffffffffffffffffffffffff168473ffffffffffffffffffffffffffffffffffffffff16636352211e856040518263ffffffff1660e01b81526004016120dc9190612890565b602060405180830381865afa1580156120f9573d6000803e3d6000fd5b505050506040513d601f19601f8201168201806040525081019061211d9190612c49565b73ffffffffffffffffffffffffffffffffffffffff1614612173576040517f08c379a000000000000000000000000000000000000000000000000000000000815260040161216a90613298565b60405180910390fd5b6121c43330600354600260009054906101000a900473ffffffffffffffffffffffffffffffffffffffff1673ffffffffffffffffffffffffffffffffffffffff1661258b909392919063ffffffff16565b60405180606001604052808381526020018573ffffffffffffffffffffffffffffffffffffffff1663c87b56dd866040518263ffffffff1660e01b815260040161220e9190612890565b600060405180830381865afa15801561222b573d6000803e3d6000fd5b505050506040513d6000823e3d601f19601f820116820180604052508101906122549190613540565b815260200160011515815250600760003373ffffffffffffffffffffffffffffffffffffffff1673ffffffffffffffffffffffffffffffffffffffff16815260200190815260200160002060008673ffffffffffffffffffffffffffffffffffffffff1673ffffffffffffffffffffffffffffffffffffffff168152602001908152602001600020600085815260200190815260200160002060008201518160000155602082015181600101908161230c9190613589565b5060408201518160020160006101000a81548160ff021916908315150217905550905050600190509392505050565b6123436123c1565b600073ffffffffffffffffffffffffffffffffffffffff168173ffffffffffffffffffffffffffffffffffffffff16036123b55760006040517f1e4fbdf70000000000000000000000000000000000000000000000000000000081526004016123ac9190612a35565b60405180910390fd5b6123be81612448565b50565b6123c961265c565b73ffffffffffffffffffffffffffffffffffffffff166123e76111aa565b73ffffffffffffffffffffffffffffffffffffffff16146124465761240a61265c565b6040517f118cdaa700000000000000000000000000000000000000000000000000000000815260040161243d9190612a35565b60405180910390fd5b565b60008060009054906101000a900473ffffffffffffffffffffffffffffffffffffffff169050816000806101000a81548173ffffffffffffffffffffffffffffffffffffffff021916908373ffffffffffffffffffffffffffffffffffffffff1602179055508173ffffffffffffffffffffffffffffffffffffffff168173ffffffffffffffffffffffffffffffffffffffff167f8be0079c531659141344cd1fd0a4f28419497f9722a3daafe3b4186f6b6457e060405160405180910390a35050565b612586838473ffffffffffffffffffffffffffffffffffffffff1663a9059cbb858560405160240161253f9291906137b2565b604051602081830303815290604052915060e01b6020820180517bffffffffffffffffffffffffffffffffffffffffffffffffffffffff8381831617835250505050612664565b505050565b612607848573ffffffffffffffffffffffffffffffffffffffff166323b872dd8686866040516024016125c0939291906131ef565b604051602081830303815290604052915060e01b6020820180517bffffffffffffffffffffffffffffffffffffffffffffffffffffffff8381831617835250505050612664565b50505050565b600260015403612649576040517f3ee5aeb500000000000000000000000000000000000000000000000000000000815260040160405180910390fd5b6002600181905550565b60018081905550565b600033905090565b600080602060008451602086016000885af180612687576040513d6000823e3d81fd5b3d9250600051915050600082146126a25760018114156126be565b60008473ffffffffffffffffffffffffffffffffffffffff163b145b1561270057836040517f5274afe70000000000000000000000000000000000000000000000000000000081526004016126f79190612a35565b60405180910390fd5b50505050565b50805461271290612f14565b6000825580601f106127245750612743565b601f0160209004906000526020600020908101906127429190612746565b5b50565b5b8082111561275f576000816000905550600101612747565b5090565b6000604051905090565b600080fd5b600080fd5b600073ffffffffffffffffffffffffffffffffffffffff82169050919050565b60006127a282612777565b9050919050565b6127b281612797565b81146127bd57600080fd5b50565b6000813590506127cf816127a9565b92915050565b6000819050919050565b6127e8816127d5565b81146127f357600080fd5b50565b600081359050612805816127df565b92915050565b600080604083850312156128225761282161276d565b5b6000612830858286016127c0565b9250506020612841858286016127f6565b9150509250929050565b60008115159050919050565b6128608161284b565b82525050565b600060208201905061287b6000830184612857565b92915050565b61288a816127d5565b82525050565b60006020820190506128a56000830184612881565b92915050565b6000602082840312156128c1576128c061276d565b5b60006128cf848285016127f6565b91505092915050565b6000806000606084860312156128f1576128f061276d565b5b60006128ff868287016127c0565b9350506020612910868287016127c0565b9250506040612921868287016127f6565b9150509250925092565b600081519050919050565b600082825260208201905092915050565b60005b8381101561296557808201518184015260208101905061294a565b60008484015250505050565b6000601f19601f8301169050919050565b600061298d8261292b565b6129978185612936565b93506129a7818560208601612947565b6129b081612971565b840191505092915050565b60006060820190506129d06000830186612881565b81810360208301526129e28185612982565b90506129f16040830184612857565b949350505050565b600060208284031215612a0f57612a0e61276d565b5b6000612a1d848285016127c0565b91505092915050565b612a2f81612797565b82525050565b6000602082019050612a4a6000830184612a26565b92915050565b600080600060608486031215612a6957612a6861276d565b5b6000612a77868287016127c0565b9350506020612a88868287016127f6565b9250506040612a99868287016127f6565b9150509250925092565b600080fd5b600080fd5b7f4e487b7100000000000000000000000000000000000000000000000000000000600052604160045260246000fd5b612ae582612971565b810181811067ffffffffffffffff82111715612b0457612b03612aad565b5b80604052505050565b6000612b17612763565b9050612b238282612adc565b919050565b600067ffffffffffffffff821115612b4357612b42612aad565b5b612b4c82612971565b9050602081019050919050565b82818337600083830152505050565b6000612b7b612b7684612b28565b612b0d565b905082815260208101848484011115612b9757612b96612aa8565b5b612ba2848285612b59565b509392505050565b600082601f830112612bbf57612bbe612aa3565b5b8135612bcf848260208601612b68565b91505092915050565b60008060408385031215612bef57612bee61276d565b5b6000612bfd858286016127c0565b925050602083013567ffffffffffffffff811115612c1e57612c1d612772565b5b612c2a85828601612baa565b9150509250929050565b600081519050612c43816127a9565b92915050565b600060208284031215612c5f57612c5e61276d565b5b6000612c6d84828501612c34565b91505092915050565b7f4e4654206973206e6f74206c6973746564000000000000000000000000000000600082015250565b6000612cac601183612936565b9150612cb782612c76565b602082019050919050565b60006020820190508181036000830152612cdb81612c9f565b9050919050565b7f496e73756666696369656e742066756e647320746f2062757920746865206e6660008201527f7400000000000000000000000000000000000000000000000000000000000000602082015250565b6000612d3e602183612936565b9150612d4982612ce2565b604082019050919050565b60006020820190508181036000830152612d6d81612d31565b9050919050565b7f4e4654206973206e6f7420617070726f76656420746f207472616e7366657200600082015250565b6000612daa601f83612936565b9150612db582612d74565b602082019050919050565b60006020820190508181036000830152612dd981612d9d565b9050919050565b7f4e487b7100000000000000000000000000000000000000000000000000000000600052601160045260246000fd5b6000612e1a826127d5565b9150612e25836127d5565b9250828202612e33816127d5565b91508282048414831517612e4a57612e49612de0565b5b5092915050565b7f4e487b7100000000000000000000000000000000000000000000000000000000600052601260045260246000fd5b6000612e8b826127d5565b9150612e96836127d5565b925082612ea657612ea5612e51565b5b828204905092915050565b6000612ebc826127d5565b9150612ec7836127d5565b9250828203905081811115612edf57612ede612de0565b5b92915050565b7f4e487b7100000000000000000000000000000000000000000000000000000000600052602260045260246000fd5b60006002820490506001821680612f2c57607f821691505b602082108103612f3f57612f3e612ee5565b5b50919050565b600081549050612f5481612f14565b9050919050565b60008190508160005260206000209050919050565b60006020601f8301049050919050565b600082821b905092915050565b600060088302612fbd7fffffffffffffffffffffffffffffffffffffffffffffffffffffffffffffffff82612f80565b612fc78683612f80565b95508019841693508086168417925050509392505050565b6000819050919050565b6000613004612fff612ffa846127d5565b612fdf565b6127d5565b9050919050565b6000819050919050565b61301e83612fe9565b61303261302a8261300b565b848454612f8d565b825550505050565b600090565b61304761303a565b613052818484613015565b505050565b5b818110156130765761306b60008261303f565b600181019050613058565b5050565b601f8211156130bb5761308c81612f5b565b61309584612f70565b810160208510156130a4578190505b6130b86130b085612f70565b830182613057565b50505b505050565b600082821c905092915050565b60006130de600019846008026130c0565b1980831691505092915050565b60006130f783836130cd565b9150826002028217905092915050565b8181036131155750506131ed565b61311e82612f45565b67ffffffffffffffff81111561313757613136612aad565b5b6131418254612f14565b61314c82828561307a565b6000601f83116001811461317b5760008415613169578287015490505b61317385826130eb565b8655506131e6565b601f19841661318987612f5b565b965061319486612f5b565b60005b828110156131bc57848901548255600182019150600185019450602081019050613197565b868310156131d957848901546131d5601f8916826130cd565b8355505b6001600288020188555050505b5050505050505b565b60006060820190506132046000830186612a26565b6132116020830185612a26565b61321e6040830184612881565b949350505050565b7f596f7520617265206e6f7420746865206f776e6572206f662074686973204e4660008201527f5400000000000000000000000000000000000000000000000000000000000000602082015250565b6000613282602183612936565b915061328d82613226565b604082019050919050565b600060208201905081810360008301526132b181613275565b9050919050565b6000815190506132c7816127df565b92915050565b6000602082840312156132e3576132e261276d565b5b60006132f1848285016132b8565b91505092915050565b7f496e73756666696369656e742066756e647320746f2077697468647261770000600082015250565b6000613330601e83612936565b915061333b826132fa565b602082019050919050565b6000602082019050818103600083015261335f81613323565b9050919050565b7f496e73756666696369656e74206c697374696e67206665650000000000000000600082015250565b600061339c601883612936565b91506133a782613366565b602082019050919050565b600060208201905081810360008301526133cb8161338f565b9050919050565b7f4e465420697320616c7265616479206c69737465640000000000000000000000600082015250565b6000613408601583612936565b9150613413826133d2565b602082019050919050565b60006020820190508181036000830152613437816133fb565b9050919050565b7f53656c6c696e672050726963652073686f756c6420626520677265617465722060008201527f7468616e20300000000000000000000000000000000000000000000000000000602082015250565b600061349a602683612936565b91506134a58261343e565b604082019050919050565b600060208201905081810360008301526134c98161348d565b9050919050565b60006134e36134de84612b28565b612b0d565b9050828152602081018484840111156134ff576134fe612aa8565b5b61350a848285612947565b509392505050565b600082601f83011261352757613526612aa3565b5b81516135378482602086016134d0565b91505092915050565b6000602082840312156135565761355561276d565b5b600082015167ffffffffffffffff81111561357457613573612772565b5b61358084828501613512565b91505092915050565b6135928261292b565b67ffffffffffffffff8111156135ab576135aa612aad565b5b6135b58254612f14565b6135c082828561307a565b600060209050601f8311600181146135f357600084156135e1578287015190505b6135eb85826130eb565b865550613653565b601f19841661360186612f5b565b60005b8281101561362957848901518255600182019150602085019450602081019050613604565b868310156136465784890151613642601f8916826130cd565b8355505b6001600288020188555050505b505050505050565b60006040820190506136706000830185612a26565b61367d6020830184612a26565b9392505050565b7f46756e6473206e6f7420617070726f76656420746f206265207472616e73666560008201527f7272656400000000000000000000000000000000000000000000000000000000602082015250565b60006136e0602483612936565b91506136eb82613684565b604082019050919050565b6000602082019050818103600083015261370f816136d3565b9050919050565b600060408201905061372b6000830185612a26565b818103602083015261373d8184612982565b90509392505050565b7f4e6f7420656e6f7567682066756e647320617070726f76656400000000000000600082015250565b600061377c601983612936565b915061378782613746565b602082019050919050565b600060208201905081810360008301526137ab8161376f565b9050919050565b60006040820190506137c76000830185612a26565b6137d46020830184612881565b939250505056fea264697066735822122028f06032f7b55bdb15c6f10d3411a9f0a3f41472176293542fd2a1b9546cd25664736f6c634300081c0033",
  "linkReferences": {},
  "deployedLinkReferences": {}
}